{
  "_format": "hh-sol-artifact-1",
  "contractName": "IPLicensing",
  "sourceName": "contracts/intellectual_property.sol",
  "abi": [
    {
      "inputs": [
        {
          "internalType": "string",
          "name": "_ipName",
          "type": "string"
        },
        {
          "internalType": "string",
          "name": "_ipDescription",
          "type": "string"
        },
        {
          "internalType": "address",
          "name": "_licensee",
          "type": "address"
        },
        {
          "internalType": "uint256",
          "name": "_royaltyPercentage",
          "type": "uint256"
        }
      ],
      "stateMutability": "nonpayable",
      "type": "constructor"
    },
    {
      "anonymous": false,
      "inputs": [
        {
          "indexed": false,
          "internalType": "uint256",
          "name": "amount",
          "type": "uint256"
        }
      ],
      "name": "CheckBalance",
      "type": "event"
    },
    {
      "anonymous": false,
      "inputs": [
        {
          "indexed": true,
          "internalType": "address",
          "name": "user",
          "type": "address"
        },
        {
          "indexed": false,
          "internalType": "uint256",
          "name": "usageAmount",
          "type": "uint256"
        }
      ],
      "name": "IPUsage",
      "type": "event"
    },
    {
      "anonymous": false,
      "inputs": [
        {
          "indexed": true,
          "internalType": "address",
          "name": "payer",
          "type": "address"
        },
        {
          "indexed": false,
          "internalType": "uint256",
          "name": "amount",
          "type": "uint256"
        }
      ],
      "name": "RoyaltyPayment",
      "type": "event"
    },
    {
      "inputs": [
        {
          "internalType": "address",
          "name": "user_account",
          "type": "address"
        }
      ],
      "name": "getBalance",
      "outputs": [
        {
          "internalType": "uint256",
          "name": "",
          "type": "uint256"
        }
      ],
      "stateMutability": "nonpayable",
      "type": "function"
    },
    {
      "inputs": [],
      "name": "grantUsage",
      "outputs": [],
      "stateMutability": "payable",
      "type": "function"
    },
    {
      "inputs": [],
      "name": "ipDescription",
      "outputs": [
        {
          "internalType": "string",
          "name": "",
          "type": "string"
        }
      ],
      "stateMutability": "view",
      "type": "function"
    },
    {
      "inputs": [],
      "name": "ipName",
      "outputs": [
        {
          "internalType": "string",
          "name": "",
          "type": "string"
        }
      ],
      "stateMutability": "view",
      "type": "function"
    },
    {
      "inputs": [],
      "name": "isRevoked",
      "outputs": [
        {
          "internalType": "bool",
          "name": "",
          "type": "bool"
        }
      ],
      "stateMutability": "view",
      "type": "function"
    },
    {
      "inputs": [],
      "name": "licensee",
      "outputs": [
        {
          "internalType": "address",
          "name": "",
          "type": "address"
        }
      ],
      "stateMutability": "view",
      "type": "function"
    },
    {
      "inputs": [],
      "name": "revokeLicense",
      "outputs": [],
      "stateMutability": "nonpayable",
      "type": "function"
    },
    {
      "inputs": [],
      "name": "royaltyPercentage",
      "outputs": [
        {
          "internalType": "uint256",
          "name": "",
          "type": "uint256"
        }
      ],
      "stateMutability": "view",
      "type": "function"
    },
    {
      "inputs": [],
      "name": "withdrawRoyalties",
      "outputs": [],
      "stateMutability": "nonpayable",
      "type": "function"
    }
  ],
  "bytecode": "0x60806040523480156200001157600080fd5b506040516200139a3803806200139a833981810160405281019062000037919062000320565b836001908162000048919062000611565b5082600290816200005a919062000611565b5081600360006101000a81548173ffffffffffffffffffffffffffffffffffffffff021916908373ffffffffffffffffffffffffffffffffffffffff16021790555080600481905550336000806101000a81548173ffffffffffffffffffffffffffffffffffffffff021916908373ffffffffffffffffffffffffffffffffffffffff16021790555050505050620006f8565b6000604051905090565b600080fd5b600080fd5b600080fd5b600080fd5b6000601f19601f8301169050919050565b7f4e487b7100000000000000000000000000000000000000000000000000000000600052604160045260246000fd5b62000156826200010b565b810181811067ffffffffffffffff821117156200017857620001776200011c565b5b80604052505050565b60006200018d620000ed565b90506200019b82826200014b565b919050565b600067ffffffffffffffff821115620001be57620001bd6200011c565b5b620001c9826200010b565b9050602081019050919050565b60005b83811015620001f6578082015181840152602081019050620001d9565b60008484015250505050565b6000620002196200021384620001a0565b62000181565b90508281526020810184848401111562000238576200023762000106565b5b62000245848285620001d6565b509392505050565b600082601f83011262000265576200026462000101565b5b81516200027784826020860162000202565b91505092915050565b600073ffffffffffffffffffffffffffffffffffffffff82169050919050565b6000620002ad8262000280565b9050919050565b620002bf81620002a0565b8114620002cb57600080fd5b50565b600081519050620002df81620002b4565b92915050565b6000819050919050565b620002fa81620002e5565b81146200030657600080fd5b50565b6000815190506200031a81620002ef565b92915050565b600080600080608085870312156200033d576200033c620000f7565b5b600085015167ffffffffffffffff8111156200035e576200035d620000fc565b5b6200036c878288016200024d565b945050602085015167ffffffffffffffff81111562000390576200038f620000fc565b5b6200039e878288016200024d565b9350506040620003b187828801620002ce565b9250506060620003c48782880162000309565b91505092959194509250565b600081519050919050565b7f4e487b7100000000000000000000000000000000000000000000000000000000600052602260045260246000fd5b600060028204905060018216806200042357607f821691505b602082108103620004395762000438620003db565b5b50919050565b60008190508160005260206000209050919050565b60006020601f8301049050919050565b600082821b905092915050565b600060088302620004a37fffffffffffffffffffffffffffffffffffffffffffffffffffffffffffffffff8262000464565b620004af868362000464565b95508019841693508086168417925050509392505050565b6000819050919050565b6000620004f2620004ec620004e684620002e5565b620004c7565b620002e5565b9050919050565b6000819050919050565b6200050e83620004d1565b620005266200051d82620004f9565b84845462000471565b825550505050565b600090565b6200053d6200052e565b6200054a81848462000503565b505050565b5b8181101562000572576200056660008262000533565b60018101905062000550565b5050565b601f821115620005c1576200058b816200043f565b620005968462000454565b81016020851015620005a6578190505b620005be620005b58562000454565b8301826200054f565b50505b505050565b600082821c905092915050565b6000620005e660001984600802620005c6565b1980831691505092915050565b6000620006018383620005d3565b9150826002028217905092915050565b6200061c82620003d0565b67ffffffffffffffff8111156200063857620006376200011c565b5b6200064482546200040a565b6200065182828562000576565b600060209050601f83116001811462000689576000841562000674578287015190505b620006808582620005f3565b865550620006f0565b601f19841662000699866200043f565b60005b82811015620006c3578489015182556001820191506020850194506020810190506200069c565b86831015620006e35784890151620006df601f891682620005d3565b8355505b6001600288020188555050505b505050505050565b610c9280620007086000396000f3fe6080604052600436106100865760003560e01c80638a71bb2d116100595780638a71bb2d1461012357806390cba9031461014e578063983728b514610158578063cc7ddb151461016f578063f8b2cb4f1461019a57610086565b806321c34fcb1461008b5780632bc9ed02146100a25780635e3044cb146100cd5780637866abe0146100f8575b600080fd5b34801561009757600080fd5b506100a06101d7565b005b3480156100ae57600080fd5b506100b7610324565b6040516100c491906107d2565b60405180910390f35b3480156100d957600080fd5b506100e2610337565b6040516100ef919061082e565b60405180910390f35b34801561010457600080fd5b5061010d61035d565b60405161011a91906108d9565b60405180910390f35b34801561012f57600080fd5b506101386103eb565b6040516101459190610914565b60405180910390f35b6101566103f1565b005b34801561016457600080fd5b5061016d610621565b005b34801561017b57600080fd5b506101846106cc565b60405161019191906108d9565b60405180910390f35b3480156101a657600080fd5b506101c160048036038101906101bc9190610960565b61075a565b6040516101ce9190610914565b60405180910390f35b60008054906101000a900473ffffffffffffffffffffffffffffffffffffffff1673ffffffffffffffffffffffffffffffffffffffff163373ffffffffffffffffffffffffffffffffffffffff1614610265576040517f08c379a000000000000000000000000000000000000000000000000000000000815260040161025c906109ff565b60405180910390fd5b600560009054906101000a900460ff16156102b5576040517f08c379a00000000000000000000000000000000000000000000000000000000081526004016102ac90610a6b565b60405180910390fd5b600047905060008054906101000a900473ffffffffffffffffffffffffffffffffffffffff1673ffffffffffffffffffffffffffffffffffffffff166108fc829081150290604051600060405180830381858888f19350505050158015610320573d6000803e3d6000fd5b5050565b600560009054906101000a900460ff1681565b600360009054906101000a900473ffffffffffffffffffffffffffffffffffffffff1681565b6002805461036a90610aba565b80601f016020809104026020016040519081016040528092919081815260200182805461039690610aba565b80156103e35780601f106103b8576101008083540402835291602001916103e3565b820191906000526020600020905b8154815290600101906020018083116103c657829003601f168201915b505050505081565b60045481565b600560009054906101000a900460ff1615610441576040517f08c379a000000000000000000000000000000000000000000000000000000000815260040161043890610a6b565b60405180910390fd5b600360009054906101000a900473ffffffffffffffffffffffffffffffffffffffff1673ffffffffffffffffffffffffffffffffffffffff163373ffffffffffffffffffffffffffffffffffffffff16146104d1576040517f08c379a00000000000000000000000000000000000000000000000000000000081526004016104c890610b37565b60405180910390fd5b3373ffffffffffffffffffffffffffffffffffffffff167fbfaba69260b8fbf329ecf117f4690bc9d9ee7e5b1f34357f09eb957760f79d52346040516105179190610914565b60405180910390a260006064600454346105319190610b86565b61053b9190610bf7565b905060008054906101000a900473ffffffffffffffffffffffffffffffffffffffff1673ffffffffffffffffffffffffffffffffffffffff166108fc829081150290604051600060405180830381858888f193505050501580156105a3573d6000803e3d6000fd5b50600081346105b29190610c28565b9050600360009054906101000a900473ffffffffffffffffffffffffffffffffffffffff1673ffffffffffffffffffffffffffffffffffffffff166108fc829081150290604051600060405180830381858888f1935050505015801561061c573d6000803e3d6000fd5b505050565b60008054906101000a900473ffffffffffffffffffffffffffffffffffffffff1673ffffffffffffffffffffffffffffffffffffffff163373ffffffffffffffffffffffffffffffffffffffff16146106af576040517f08c379a00000000000000000000000000000000000000000000000000000000081526004016106a6906109ff565b60405180910390fd5b6001600560006101000a81548160ff021916908315150217905550565b600180546106d990610aba565b80601f016020809104026020016040519081016040528092919081815260200182805461070590610aba565b80156107525780601f1061072757610100808354040283529160200191610752565b820191906000526020600020905b81548152906001019060200180831161073557829003601f168201915b505050505081565b6000808273ffffffffffffffffffffffffffffffffffffffff163190507f7c4b3ebe24b67f845d481885128ad41f55e5d927e00e2573453e1a8cf437b75c816040516107a69190610914565b60405180910390a180915050919050565b60008115159050919050565b6107cc816107b7565b82525050565b60006020820190506107e760008301846107c3565b92915050565b600073ffffffffffffffffffffffffffffffffffffffff82169050919050565b6000610818826107ed565b9050919050565b6108288161080d565b82525050565b6000602082019050610843600083018461081f565b92915050565b600081519050919050565b600082825260208201905092915050565b60005b83811015610883578082015181840152602081019050610868565b60008484015250505050565b6000601f19601f8301169050919050565b60006108ab82610849565b6108b58185610854565b93506108c5818560208601610865565b6108ce8161088f565b840191505092915050565b600060208201905081810360008301526108f381846108a0565b905092915050565b6000819050919050565b61090e816108fb565b82525050565b60006020820190506109296000830184610905565b92915050565b600080fd5b61093d8161080d565b811461094857600080fd5b50565b60008135905061095a81610934565b92915050565b6000602082840312156109765761097561092f565b5b60006109848482850161094b565b91505092915050565b7f4f6e6c79206f776e65722063616e2063616c6c20746869732066756e6374696f60008201527f6e00000000000000000000000000000000000000000000000000000000000000602082015250565b60006109e9602183610854565b91506109f48261098d565b604082019050919050565b60006020820190508181036000830152610a18816109dc565b9050919050565b7f4950206c6963656e7365206973207265766f6b65640000000000000000000000600082015250565b6000610a55601583610854565b9150610a6082610a1f565b602082019050919050565b60006020820190508181036000830152610a8481610a48565b9050919050565b7f4e487b7100000000000000000000000000000000000000000000000000000000600052602260045260246000fd5b60006002820490506001821680610ad257607f821691505b602082108103610ae557610ae4610a8b565b5b50919050565b7f4f6e6c79206c6963656e7365652063616e207573652074686520495000000000600082015250565b6000610b21601c83610854565b9150610b2c82610aeb565b602082019050919050565b60006020820190508181036000830152610b5081610b14565b9050919050565b7f4e487b7100000000000000000000000000000000000000000000000000000000600052601160045260246000fd5b6000610b91826108fb565b9150610b9c836108fb565b9250828202610baa816108fb565b91508282048414831517610bc157610bc0610b57565b5b5092915050565b7f4e487b7100000000000000000000000000000000000000000000000000000000600052601260045260246000fd5b6000610c02826108fb565b9150610c0d836108fb565b925082610c1d57610c1c610bc8565b5b828204905092915050565b6000610c33826108fb565b9150610c3e836108fb565b9250828203905081811115610c5657610c55610b57565b5b9291505056fea26469706673582212202f1a089430363713b9a227576341fceaa569b4f2d52e07d3e8ae243439d97d8564736f6c63430008140033",
  "linkReferences": {},
  "deployedLinkReferences": {}
}